:030000000237863E
:10378600787FE4F6D8FD9000007FFF7E10E4F0A37A
:10379600DFFCDEFA78007FFFE4F208DFFC75816E5D
:0337A6000237E403
:1031FD002325303262642563256300232530326236
:10320D0064256325633D00257325730D004E004F26
:10321D004B00455252003D505349003D4D424152E5
:10322D00004D4241520050534900495054495F42AC
:10323D0000257325626428505349290D00257325F7
:10324D00303262642F25303262642F253032626451
:10325D000D0023253032626443503D25372E3466F0
:10326D000D0023253032626443503D25372E3366E1
:10327D000D002573256C640D00257325342E3166E4
:10328D000D00312E312E3400257325640D0025736C
:10329D000D00495054495F4200312E312E3400004B
:1032AD004D61696E2E63004A756E203232203230C8
:1032BD0031322031323A33393A3035001080200323
:0832CD0010102008300103007D
:103F71000444000000000449000000008201000028
:073F81008208000081070027
:10195700D2A7D292D291D29012408D439A07E5EF47
:1019670020E148E5EF30E6077D437F031240FDE5C0
:10197700EF30E5077D307F031240FDE5EF30E407E8
:101987007D537F031240FDE5EF30E3077D577F036B
:101997001240FDE5EF30E2077D4D7F031240FDE584
:1019A700EF30E0077D527F031240FD12403F123FA8
:1019B700E3E5A0F4F527E4F5B053270FE527B40EC8
:1019C7000375270BE527B40F03752715E478D2F2C3
:1019D70078D174FFF2C2A47BFE7A0079A27D11123E
:1019E7003D297BFE7A0079A27D10123DFE78D9EF62
:1019F700F278B2E26F6028E47801F208F27808F230
:101A070008F278A2F2FE7F0AFD7BFE7A0079A71220
:101A17000C71E478B1F27D317F011240FD801A78B4
:101A2700A3E2FF08E27801CFF208EFF278A5E2FF20
:101A370008E27808CFF208EFF2E527700578B1E2FF
:101A4700F52778D9740AF2122B0AEF700778D9E2D2
:101A570014F270F378D9E270067D31FF1240FD125F
:101A670038291240C0123AAFD2AF75FFA530000433
:101A7700C200803B300104C2018031300204C2023F
:101A8700802D300304C2038026300404C204801F63
:101A9700300504C2058011300604C20680113007E4
:101AA7000EC207123AAF8007B2A48003123479122C
:101AB70032D5EF4E70B4E52678E4B43D0C74FFF2EE
:101AC700087431F20874FD800A74FFF2087432F268
:101AD700087408F208E527F208E525F208E526F27A
:101AE7007B007A0079081223AAE5268525F01208DB
:101AF7000C1B40413D1B7042501BDE434B1C0844EE
:101B0700551C6949441C9A4D3D1CD850311CB55091
:101B17003D1E3352531D24533D1A7153501D5E54BD
:101B2700311D7F54331DA0563D1A7157451DC158AD
:101B37003D1DF85A3D00001E57E524601278A77C2A
:101B4700007DFE7BFE7A0079C1120AAA021E0C787C
:101B5700E4E4F2087400F2087408F20874FEF2086C
:101B67007400F20874A7021DB7E52460507BFE7A63
:101B77000079C31233A978D9EFF224F5603924FD2F
:101B8700601D24FB601F24F7602124E3602324D910
:101B9700600724576003021A71758DB8021A7175B0
:101BA7008DD0021A71758DDC021A71758DE8021AD3
:101BB70071758DF4021A71758DFA021A7178E4E461
:101BC700F2087400F2087408F20874FFF20874321D
:101BD700F208741A021DB7122B0AEF7BFF60067A10
:101BE70032791C80047A32791F78E7EBF208EAF23F
:101BF70008E9F278E4E4F2087400F2087408021DB8
:101C0700B7E524603478C17C007DFE7BFF7A3279AA
:101C1700231209C1EF700678A2F2123EB178C17C97
:101C2700007DFE7BFF7A3279281209C1EF6003023B
:101C37001A7178A204F2021E0C78E4E4F208740028
:101C4700F2087408F278A2E27BFF60067A32792EF6
:101C570080047A32793378E7EBF208EAF208E9028E
:101C67001DB7E52460137BFE7A0079C21233A98F72
:101C77002778B1E527F2021E0C78E4E4F208740035
:101C8700F2087408F20874FFF2087432F208743725
:101C9700021DB778E4E4F2087400F2087408F278D9
:101CA70007E278E7F27BFF7A32793E021E5178E449
:101CB700E4F2087400F2087408F29003A9E008F24D
:101CC700A3E008F2A3E008F27BFF7A32794A021E0A
:101CD7005178A2E2146020046003021A717BFF7A34
:101CE70032795F78E4E527F2AF4CAE4BAD4AAC49A9
:101CF7000812075B021E5178E4E527F27F2B7EE589
:101D07007D897C42AB4CAA4BA94AA8491201967817
:101D1700E512075B7BFF7A32796F021E519003ACA5
:101D2700E07803F2A3E008F2A3E008F2A3E008F2E8
:101D370078E4E4F2087400F2087408F27803E2FC2D
:101D470008E2FD08E2FE08E2FF78E712075B7BFF87
:101D57007A32797F021E51AF56AE55123C8278E730
:101D670012075B78E4E4F2087400F2087408F27B67
:101D7700FF7A327986021E51AF56AE55123FC278AE
:101D8700E712075B78E4E4F2087400F2087408F2DB
:101D97007BFF7A327986021E5178E4E4F2087400F8
:101DA700F2087408F20874FFF2087432F208748FAC
:101DB700F27BFF7A327914021E51E52460127BFE12
:101DC7007A0079C11233A97808EEF208EFF280356C
:101DD70078E4E4F2087400F2087408F27808E2FF85
:101DE70008E278E7CFF208EFF27BFF7A3279958045
:101DF70059E52460167BFE7A0079C11233A9780170
:101E0700EEF208EFF2123EB1021A7178E4E4F2083A
:101E17007400F2087408F27801E2FF08E278E7CF6D
:101E2700F208EFF27BFF7A327995801E78E4E4F2CC
:101E3700087400F2087408F20874FEF2087400F2DD
:101E47000874D3F27BFF7A3279141223B0021A7125
:101E570078E4E4F2087400F2087408F27BFF7A323F
:081E6700799B1223B0021A71ED
:0E40C000C2917A3279CB123DC1123DBDD29130
:0140CE0022CF
:103AAF00C2917F01308306EF60030F80F77F3812DA
:103ABF00407B7F01308306EF60030F80F7E478DEF1
:103ACF00F212402A78DEE22455F8A60778DEE204E7
:103ADF00F2E2C3940240EA123DBDD291122E14C3FA
:103AEF0078BEE2955618E2955550077D3E7F03123A
:103AFF0040FDD378BCE2955618E2955540077D3CC2
:053B0F007F031240FDE0
:013B1400228E
:10382900123F9CC2907BFF7A3279CD7D03123DC550
:103839007F5012407B12402A78DEEFF212402A783C
:10384900DFEFF29032CEE493FF18E2B50709A3E463
:1038590093FF08E26F60077D417F031240FD7BFF04
:103869007A3279D07D03123DC57F4812407B1240E0
:103879002A78DEEFF212402A78DFEFF29032D1E4B3
:1038890093FF18E2B50709A3E493FF08E26F600705
:103899007D417F031240FD7F4012407B12402A7810
:1038A900DEEFF2648860077D457F031240FDD29008
:0138B90022EC
:10347900C290E4F5517F5812407B7F01308306EFFB
:1034890060030F80F778DE7401F212402A78DEE2D9
:103499002451F8A60778DEE204F2E2C3940440EA74
:1034A9007BFF7A3279D07D03123DC5D29078B7E29D
:1034B900FC08E2FD08E2FE08E2FFAB54AA53A95258
:1034C900A851D312071140077D2B7F031240FD78C5
:1034D900B3E2FC08E2FD08E2FE08E2FFAB54AA539E
:1034E900A952A851C312071150077D2D7F0312401D
:1034F900FDE5472554F547E5463553F546E5453598
:1035090052F545E5443551F5447800E204F2E2D339
:1035190094034024AF47AE46AD45AC447802120748
:10352900228F478E468D458C44122C9DE47800F2FB
:08353900F547F546F545F544A0
:013541002267
:102B0A00C2927BFF7A3279D37D02123DC5E4F54148
:102B1A00F54078DEF212402A78DEE2FE2400F582E1
:102B2A00E43403F583EFF074002EF582E43403F500
:102B3A0083E02540F5402541F541E204F2E2C394E1
:102B4A00B640D2D292E5406003022C97E541600379
:102B5A00022C97754227754310C208E478DEF27892
:102B6A00DEE2FF25E025E02400F582E43403F58364
:102B7A00E0F54DEF25E025E02401F582E43403F584
:102B8A0083E0F54EE2FF25E025E02402F582E434F5
:102B9A0003F583E0F54FEF25E025E02403F582E411
:102BAA003403F583E0F550AC42AD43EC1203AEAB0F
:102BBA0050AA4FA94EA84D1201961203E778DEE2F9
:102BCA00FB25E025E0240AF812075BEB25E025E067
:102BDA00240AF8E2FC08E2FD08E2FE08E2FFC0046B
:102BEA00C005C006C007AF50AE4FAD4EAC4D78E33E
:102BFA0012075BD007D006D005D004123E3C401025
:102C0A0074182543F54374FC3542F542D208800E08
:102C1A0078DEE204F2E2C394265003022B6975FFC0
:102C2A00A5300803022B63AE42AF43EE3395E0FDB5
:102C3A00FCC004A905AA06AB07789EE2FC08E2FDDF
:102C4A0008E2FE08E2FFD000123D797807EFF29021
:102C5A0003A0E078B7F2A3E008F2A3E008F2A3E049
:102C6A0008F290039CE078B3F2A3E008F2A3E0082C
:102C7A00F2A3E008F29003A6E078BDF2A3E008F21E
:102C8A009003A4E078BBF2A3E008F280037F00225D
:022C9A007FFFBA
:012C9C002215
:103E3C00C209C20AEC335003C38001D39209E4FFD8
:103E4C00FEFDFC78E3E2FB08E2F908E2FA08E2CBBB
:103E5C00F8748012033E5003C38001D3920AA20A65
:0A3E6C00300901B34003D38001C305
:013E76002229
:083DBD007A3279C97BFF7D0217
:0D3DC50078E0EBF208EAF208E9F208EDF20E
:103DD200E408F278E3E2FF08E2FEC39F501D78E0B8
:103DE200E2FB08E2FA08E2F98E82758300120634D9
:0B3DF200FF12407B78E4E204F280D86E
:013DFD0022A3
:10407B007E01C2FF8F9B20FF06AF060EEF70F7C2CB
:01408B00FF35
:01408C002211
:10402A007F01C2FFE4F59B20FF06AE070FEE70F793
:04403A00C2FFAF9B77
:01403E00225F
:102C9D00854733854632854531854430856E378588
:102CAD006D36856C35856B34123A37E537256AF507
:102CBD0037E5363569F536E5353568F535E53435BD
:102CCD0067F534123A37E5372566F537E53635655C
:102CDD00F536E5353564F535E5343563F534123AB9
:102CED0037E5372562F537E5363561F536E53535A6
:102CFD0060F535E534355FF534123A37E537255E45
:102D0D00F537E536355DF536E535355CF535E534C4
:102D1D00355BF534123A37E537255AF537E5363553
:102D2D0059F536E5353558F535E5343557F5341261
:102D3D003A37780AE2FC08E2FD08E2FE08E22537A0
:102D4D00F537EE3536F536ED3535F535EC3534F5FB
:102D5D00347801E2FE08E2FFEE3395E0FDFCE53745
:102D6D002FF537E5363EF536E5353DF535E5343CA1
:102D7D00F534AF37AE36AD35FC1203A9C004C0052E
:102D8D00C006C007AC42AD43EC1203AEA804A905C2
:102D9D00AA06AB07D007D006D005D00412029F8F2C
:102DAD004C8E4B8D4A8C49AB4CAA4BA94AA849C0B5
:102DBD0000C001C002C0037808E2FC08E2FDEC127D
:102DCD0003AE7BBD7A3779867835120196C004C083
:102DDD0005C006C0077807E2FCE41203B3AB4CAAAA
:102DED004BA94AA8491200A1D003D002D001D000AE
:102DFD00120196D003D002D001D0001200A58F4C45
:072E0D008E4B8D4A8C492217
:10311D008F338E328D318C30856E37856D36856C63
:10312D0035856B34123A37E537256AF537E536358F
:10313D0069F536E5353568F535E5343567F534121D
:10314D003A37E5372566F537E5363565F536E53534
:10315D003564F535E5343563F534123A37E5372501
:10316D0062F537E5363561F536E5353560F535E52A
:10317D0034355FF534123A37E537255EF537E536E8
:10318D00355DF536E535355CF535E534355BF534CE
:10319D00123A37E537255AF537E5363559F536E51F
:1031AD00353558F535E5343557F534123A37780A53
:1031BD00E2FC08E2FD08E2FE08E22537FFEE3536B7
:1031CD00FEED3535FDEC3534FC1203A9C004C00508
:1031DD00C006C007AC42AD43EC1203AEA804A9056E
:1031ED00AA06AB07D007D006D005D00412029F2245
:102E1400E478DFF2F278DFE2FBC394064003022F8A
:102E24002EAE55AF56E48F338E32F531F530EB25A7
:102E3400E025E02486F8E2FC08E2FD08E2FE08E270
:102E4400F5378E368D358C34123BD178DFE225E0B0
:102E540025E0246EF8E2FC08E2FD08E2FE08E22523
:102E640037F537EE3536F536ED3535F535EC3534A1
:102E7400F534123BD178DFE225E025E02456F8E270
:102E8400FC08E2FD08E2FE08E22537F537EE3536A8
:102E9400F536ED3535F535EC3534F534123BD1786E
:102EA400DFE225E025E0243EF8E2FC08E2FD08E24A
:102EB400FE08E22537F537EE3536F536ED3535F5CE
:102EC40035EC3534F534123BD178DFE225E025E0EA
:102ED4002426F8E2FC08E2FD08E2FE08E22537F5C4
:102EE40037EE3536F536ED3535F535EC3534F53424
:102EF400123BD178DFE2FB25E025E0240EF8E2FC6A
:102F040008E2FD08E2FE08E22537FFEE3536FEED65
:102F14003535FDEC3534FCEB25E025E02457F8127B
:0A2F2400074F78DFE204F2022E19D5
:012F2E002280
:103EB1007801E2FF08E278A3CFF208EFF27808E296
:103EC100FF08E278A5CFF208EFF27BFE7A0079A233
:103ED1007D10123DFE78B2EFF27BFE7A0079A27D71
:043EE10011023C2A64
:103C820078BBE2FC08E2FDC3EF9DFDEE9CFCE41272
:103C920003AEE4FBFA79FA7842120196C004C00539
:103CA200C006C00778BBE2FE08E2FFC378BEE29F0F
:103CB200FD18E29EFCE41203AEA804A905AA06AB15
:103CC20007D007D006D005D00412029FE4FBFA7990
:073CD2002078C21200A522B8
:103FC200123C82E4FBFA79107841120196E4FBFA82
:103FD20079A0784012029FE4FBFAF978421200A518
:013FE20022BC
:103F9C007FFF75F802D284C290E4FED282AD071F77
:103FAC00ED70FAC282AD071FED70FA0EEEB441EB64
:053FBC00D29075F8032E
:013FC10022DD
:10401400758E10758840758920758DB875910475F5
:0640240092E07593E32217
:04001D007598502260
:0A40E900759AC075F803759D20223A
:1040B00075A4DC75A54775A69075E10675E34022E9
:10000300E4FFFE75B1670FBF00010EBE0BF8BFB86A
:09001300F5E5B130E7FB75B20818
:01001C0022C1
:0741060075A81075E7012206
:10408D0012401412001D1240E91240B0120003023A
:02409D004106DA
:1013A6004572726F72733A2028256264290D0025F2
:1013B6007320253062580D00536F757263650D25D5
:1013C600730025303262583A252D3234730D000DE4
:1013D6004572726F720D25730025303262583A25B8
:1013E6002D323473002530326258252D3234730085
:1013F600426164204572726F7220536F7572636525
:1014060020436F646500093A200025303262582077
:10141600252D32347300426164204572726F72204A
:10142600436F6465000D005E2573202573004D45EE
:101436004E005E4D61696E74204D656E75004944BF
:1014460000436F6465204964656E7469666963610B
:1014560074696F6E00455100446973706C61792040
:101466004572726F7220517565756500455441422B
:1014760000446973706C6179204572726F722054F2
:1014860061626C650054454D004350552054656DAE
:101496007065726174757265005A4342005A6572CE
:1014A6006F20436F6D6D20427566730045494E008F
:1014B6004563686F205278204461746120746F2000
:1014C600553100454F5554004563686F20547820C8
:1014D6004461746120746F2055310053434C0053AE
:1014E60063616C650054534B005461736B204D610E
:1014F600736B206258005245450052656164204571
:101506006570726F6D0049505200496E69742050C3
:10151600726573737572650052505200526561644C
:101526002050726573737572650049545000496E98
:1015360069742054656D70657261747572650052C8
:10154600545000526561642054656D706572617413
:10155600757265004F4653004F66667365742025A5
:10156600640053504E005370616E202564004D3266
:101576003400333220626974206D756C7420736890
:10158600696674203234004D313600333220626988
:1015960074206D756C74207368696674203136002A
:1015A60000252D38733A2025730D00252D31362E52
:1015B600307325730D004E616D653A005665727382
:1015C600696F6E3A0050617274233A0046696C6521
:1015D6003A004C6962204E616D653A004C696220A2
:1015E60056657273696F6E3A004C69622046696C83
:1015F600653A00436F6D70696C652054696D653A94
:1016060000252D31362E3073004D6F64656C3A001F
:10161600536D616C6C0D00436F6D706163740D00EA
:101626004C617267650D000D4275666665727309D9
:101636005A65726F2764004563686F313D257320D4
:10164600004F6E004F6666004563686F323D257336
:1016560020002564200D00256258002562580900E7
:10166600257300252031316C642025660D005072EB
:10167600657373757265204D617820252031316C54
:10168600642025660D005072657373757265204D72
:10169600696E20252031316C642025660D00546565
:1016A6006D7065726174757265204D6178202520B4
:1016B60036752025660D0054656D7065726174750A
:1016C6007265204D696E20252036752025660D0031
:1016D600257320496E69742050726573737572653F
:1016E6000D00526561643A20256C7520257520250C
:1016F600660D00496E69742054656D70657261747B
:101706007572650D00526561643A2025750D0025D8
:101716006264004F66667365743A2025626420250C
:1017260066200D005370616E3A202562642025669E
:10173600200D00256C643A256C64000D3D202025A3
:101746006C7520256C6420200D000D4D33325F3101
:1017560036203D20256C640D00005EBCE2613FDD55
:1017660083C29C7E20A3FD1F419DC3217FFCA24016
:101776001E5F01E3BD3E6082DC237D9FC1421CFEED
:10178600A0E1BF5D0380DE3C62BEE0025CDF8163F8
:101796003D7C22C09E1D43A1FF4618FAA427799BD3
:1017A600C584DA3866E5BB5907DB856739BAE406CE
:1017B600581947A5FB7826C49A653BD987045AB8B9
:1017C600E6A7F91B45C6987A24F8A6441A99C725B0
:1017D6007B3A6486D85B05E7B98CD2306EEDB3519F
:1017E6000F4E10F2AC2F7193CD114FADF3702ECC7E
:1017F60092D38D6F31B2EC0E50AFF1134DCE907285
:101806002C6D33D18F0C52B0EE326C8ED0530DEF5F
:10181600B1F0AE4C1291CF2D73CA947628ABF51762
:10182600490856B4EA6937D58B5709EBB536688A45
:10183600D495CB2977F4AA4816E9B7550B88D63440
:101846006A2B7597C94A14F6A8742AC896154BA927
:10185600F7B6E80A54D7896B3538303531204C69EC
:10186600627261727900312E303000383035314C79
:1018760069622E43004A756E203232203230313290
:101886000931323A33393A3035002D2D2D2D2D2D93
:101896002D2D2D2D2D2D2D2D2D2D2D2D2D2D2D2D72
:1018A6002D2D2D2D2D2D2D2D2D2D2D2D2D2D2D2D62
:1018B6002D2D2D2D2D2D2D2D0D001B5B324A1B5B45
:1018C600313B314800FF1434FF143800FF1444FF45
:1018D600144700FF145BFF145E00FF1472FF1477B9
:1018E60000FF148BFF148F01FF149FFF14A300FF4A
:1018F60014B2FF14B600FF14C9FF14CE00FF14E1A2
:10190600FF14E500FF14EBFF14EF00FF14FCFF15B6
:101916000000FF150CFF151000FF151EFF15220015
:10192600FF1530FF153400FF1545FF154900FF155B
:101936005AFF155E00FF1568FF156C00FF1574FF52
:10194600157800FF158DFF159100FF15A6FF15A64A
:01195600028E
:103F880041045000C116C1134103B80085D3303035
:033F9800303000C6
:103FE300C287C286E4F52EF52CF523F52DF52AC2FA
:0A3FF30015C214D216D213F52B22CA
:1032D500E52E652C70030233A4AF2E052E74002F46
:1032E500F582E43401F583E078DAF2E52AB40700E3
:1032F50050DE9032FEF8282873023313023324027D
:10330500333D02336602337102337F02339E78DA2E
:10331500E2FFB42A05752A0180B6122F2F80B178F5
:10332500DAE2FF1240CF503378DAE224D075F00AA2
:10333500A4F529752A02809878DAE2FF1240CF5069
:103345001A78DAE224D02529F52965276005E529CB
:10335500B46306752A030232D58000E4F52A0232E9
:10336500D578DAE2F525752A040232D578DAE2F560
:1033750026E4F524752A050232D578DAE2FDB40D86
:103385000974C12524F8E4F2801074C12524F8EDF0
:10339500F2052453240F0232D5E4F52AFEFF227EDE
:0333A500007F01A5
:0133A8002202
:103DFE0078DAEBF208EAF208E9F208EDF2E4F528D7
:103E0E0078DDE2D39400402378DAE2FB08E2FA0888
:103E1E00E2F912061BFF1240DE78DCE22401F218F2
:0E3E2E00E23400F278DDE214F280D5AF2822F3
:0B40DE00E5286F90175F93F528FF2284
:103F430078FBEFF2AE2D052D74002EF582E43402DA
:103F5300F583EFF0E52DB523097D097F031239447D
:0E3F63000523301604C216D29978FBE2FF2225
:043E770078F8EFF2F6
:103E7B0074FF08F208F2AD23AF2D123FFDEFD39480
:103E8B00C8401778F908E2FF24FFF218E2FE34FF6E
:103E9B00F2EF4E600575FFA580DC78F8E2FF123F6C
:053EAB004378F8E2FF7E
:013EB00022EF
:03009B0002006DF3
:04006D0053AD7F32DE
:0300730002002662
:0F002600C0E0C083C082C0D075D000C000C0074A
:1000350053917F78C0E204F27F0178C0E25F7008D7
:10004500EF600525E0FF80F278D1E25FFF552008DB
:0B005500F26005E2900450F0EF422042
:0D006000D007D000D0D0D082D083D0E032C5
:0A3CD90078DBEBF208EAF208E9F2EA
:103CE300E408F208F278DBE2FB08E2FA08E2F908FA
:103CF300E2FE08E2F5828E83120634FF602712404B
:103D03009F78DBE2FB08E2FA08E2F908E2FC08E24A
:103D1300F5828C83EF12067378DFE22401F218E256
:053D23003400F280C035
:013D28002278
:0D3C2A0078DAEBF208EAF208E9F208EDF2B0
:103C3700E408F208F2EDD39480400578DD12393DAF
:103C4700D208E4FFFE123F1478DDE2FF14F2EF60C2
:103C5700290808E2FF2401F218E2FE3400F278DABC
:103C6700E2FB0808E2F92401F218E2FA3400F21242
:0A3C7700061BFDD208123EE580CEC8
:013C81002220
:0D3D290078DAEBF208EAF208E9F208EDF2B0
:103D3600E408F208F2EDD39480400578DD12393DAF
:103D460078DDE2FF14F2EF60290808E2FF2401F2B1
:103D560018E2FE3400F2D20812007678DAE2FB08A6
:103D660008E2F92401F218E2FA3400F2EF120661D1
:023D760080CEFD
:013D78002228
:103EE500A2AF9209C2AF8E128F1343B601438F0161
:103EF500300803438F04851382851283EDF0300863
:0E3F050003538FFB538FFE53B6FEA20992AFFB
:013F1300228B
:10007600A2AF9209C2AF8E128F13300803438F04CA
:10008600851382851283E493FF300803538FFBA206
:030096000992AF1D
:010099002244
:103F1400A2AF9209C2AF8E128F1343B601438F032F
:103F2400300803438F04851382851283E4F030083C
:0E3F340003538FFB538FFC53B6FEA20992AFCE
:013F4200225C
:103FFD00EF6D6010EDD39F4004ED9FFF22C3EF9D49
:07400D00F404FF227F0022F2
:10403F007E007F107D007B017A047951120C71E4B0
:05404F009003B9F0220E
:07393D007480F27D0B7F0D89
:103944009003B9E0FE244FF582E43404F583E0B536
:10395400070E74502EF582E43404F583E06D60584C
:103964009003B9E0C394104027E4F0E0FE04F0743F
:10397400512EF582E43404F5837401F09003B9E028
:10398400FE04F074512EF582E43404F5837408F0D7
:103994009003B9E0FE04F074512EF582E43404F58A
:1039A40083EFF0AF059003B9E0FE04F074512EF5F7
:0939B40082E43404F583EFF022F3
:10360B009003B9E0FF70030236CD7BFF7A1379A6E6
:10361B00C31378E4F21223B0E49003B9F078D1E24B
:10362B0078DEF2E478D1F29003B9E02451F582E42C
:10363B003404F583E070030236C764119003B9704C
:10364B004FE0FF04F074512FF582E43404F583E06E
:10365B0025E025E0245BF582E43422F583E493F93D
:10366B00740193FA74029378E4C9F208EAF208E958
:10367B00F29003B9E0FF04F074512FF582E43404A7
:10368B00F583E008F27BFF7A1379B51223B080261D
:10369B00E0FF04F074512FF582E43404F583E0FF6E
:1036AB009003B9E0FE04F074512EF582E43404F576
:1036BB0083E0FD1236CE75FFA502363278DEE27856
:0236CB00D1F23A
:0136CD0022DA
:1035420078DE7401F278D1E278DFF2E478D1F278B1
:10355200E474FFF2087418F2087490F27BFF7A1395
:1035620079BE1223B078DEE2FFC3941E503878E4AD
:10357200EFF2EF25E025E0245BF582E43422F583C7
:10358200E493F9740193FA74029308C9F208EAF217
:1035920008E9F27BFF7A1379C81223B078DEE204DD
:1035A200F275FFA580BF78DE7401F278E474FFF251
:1035B200087418F2087490F27BFF7A1379D51223FB
:1035C200B078DEE2FFC3941D503878E4EFF2EF25C5
:1035D200E025E024D7F582E43422F583E493F974FC
:1035E2000193FA74029308C9F208EAF208E9F27B3D
:1035F200FF7A1379C81223B078DEE204F275FFA5D0
:0836020080BF78DFE278D1F20D
:01360A00229D
:1036CE0078E0EDF218EFF2C3941E502EE2FF78E48C
:1036DE00F2EF25E025E0245BF582E43422F583E465
:1036EE0093F9740193FA74029308C9F208EAF20886
:1036FE00E9F27BFF7A1379DF801878DFE278E4F263
:10370E000874FFF2087413F20874F6F27BFF7A1352
:10371E0079EB1223B07BFF7A14790C1223B078E088
:10372E00E2FFC3941D502D78E4EFF2EF25E025E083
:10373E0024D7F582E43422F583E493F9740193FAE5
:10374E0074029308C9F208EAF208E9F27BFF7A13D1
:10375E0079DF801878E0E278E4F20874FFF20874FA
:10376E0014F208741CF27BFF7A1479101223B07BCA
:08377E00FF7A14792B0223B03D
:102F2F0078BFE2FD3395E0FC74BA2DF58274033C53
:102F3F00F583EFF074BA2DF58274033CF583E0B49A
:102F4F005E15E4F2E2FF3395E0FE74BA2FF582745A
:102F5F00033EF583745EF078BFE2FF3395E0FE74B5
:102F6F00BA2FF58274033EF583E0FFB40814E22410
:102F7F00FEF2E2C3648094804003023016E4F20252
:102F8F003016EF640D60030230169003BAE0645EF2
:102F9F00707078BFE2FF3395E0FE74BA2FF582743C
:102FAF00033EF583E4F0FE7F32FD7B017A04791E48
:102FBF00120C717E007F327D007B017A0379EC1257
:102FCF000C7178E174FFF2087414F208742DF20892
:102FDF007401F2087404F208741EF2087401F20806
:102FEF007403F20874ECF27B017A0379BA12283A6F
:102FFF007B017A04791E123CD97B017A04791E1267
:10300F003B1578BF74FFF278BFE2FF04F2D3EF6491
:10301F008094B04002E4F29003B8E0FF6003120D19
:07302F00A77B017A04791E62
:013036002277
:0A39BD0078DBEBF208EAF208E9F209
:1039C700E478E1F208F278DEE2FB08E2FA08E2F9CD
:1039D70008E2FE08E2FFF5828E837407120767127A
:1039E70007B612061B604178DEE2FB08E2FA08E23E
:1039F700F98F828E8374071207671207B6A801AC86
:103A070002AD03C00078DBE2FB08E2FA08E2F9D076
:103A1700007E007F03120C4DEF600D78E2E2240177
:0F3A2700F218E23400F2809E78E1E2FE08E2FF3E
:013A3600226D
:103B150012061B605A78DE74FFF2087418F20874F6
:103B2500CBF21239BD9018CE75F007EF120778EE7B
:103B350075F007A42583F583E493FB740193FA7468
:103B45000293F912061B60279018D175F007EF1242
:103B55000778EE75F007A42583F583E493B4010790
:0F3B65009003B8EFF08005E49003B8F0120DA7BD
:013B7400222E
:100DA700EFB4130040030213A5900DB7F82828737A
:100DB700020DF0020EB00210150210180213A50260
:100DC700101B02103302105702107B02108D021005
:100DD700BE02120D0212260212540212600212758E
:100DE7000212C202130F021360E478DBF208F278F2
:100DF700D1E278DDF2E478D1F278DBE2FE08E2FFB7
:100E07009018CB75F007120778EE75F007A42583C5
:100E1700F583E493FB740193FA740293F912061BAA
:100E2700700302100E9018D175F007EF120778EED5
:100E370075F007A42583F583E49320E15E18E2FEAD
:100E470008E2FF9018CB75F007120778EE75F007E8
:100E5700A42583F583E493F9740193FA74029378D4
:100E6700E4C9F208EAF208E9F29018CE75F007EF44
:100E7700120778EE75F007A42583F583E493F974D8
:100E87000193FA74029308C9F208EAF208E9F27BBF
:100E9700FF7A1579A71223B075FFA578DCE2240144
:100EA700F218E23400F2020E0078D1E278DDF2E4C3
:100EB70078D1F278E474FFF2087415F20874BCF282
:100EC7000874FFF2087432F208749FF27BFF7A15F8
:100ED70079B11223B078E474FFF2087415F208743C
:100EE700C2F20874FFF2087432F20874A6F27BFFAC
:100EF7007A1579B11223B078E474FFF2087415F209
:100F07000874CBF20874FFF2087432F20874ACF27A
:100F17007BFF7A1579B11223B078E474FFF2087475
:100F270015F20874D2F20874FFF2087432F20874EA
:100F3700ADF27BFF7A1579B11223B075FFA578E47E
:100F470074FFF2087415F20874D8F20874FFF208F7
:100F57007418F208745FF27BFF7A1579B11223B027
:100F670078E474FFF2087415F20874E2F20874FF6B
:100F7700F2087418F208746CF27BFF7A1579B112D3
:100F870023B078E474FFF2087415F20874EFF208DE
:100F970074FFF2087418F2087471F27BFF7A1579FE
:100FA700B11223B078E474FFF2087415F20874F9EB
:100FB700F20874FFF2087418F208747BF27BFF7A68
:100FC7001579B11223B078E474FFF2087416F208A9
:100FD700740FF27BFF7A1679071223B07E007F0128
:100FE700E47024EF14600F146014240270197BFF5F
:100FF7007A167916800E7BFF7A16791D80067BFF9D
:101007007A1679261223B078DDE278D1F2220236F9
:101017000B0235427E047F007D007B017A01790057
:10102700120C717BFF7A16792D0213A2B2147BFF83
:101037003014067A16794780047A16794A78E4EBF1
:10104700F208EAF208E9F27BFF7A16793D0213A269
:10105700B2157BFF3015067A16794780047A167920
:101067004A78E4EBF208EAF208E9F27BFF7A1679AC
:101077004E0213A27BFF7A16795878E4E542F2080C
:10108700E543F20213A278E174FFF2087416F2083E
:10109700745DF20874FEF2087400F20874D1F27BF2
:1010A700017A0379EC12283A7BFF7A16796178D1B5
:1010B700E278E4F20213A2122B0A78E474FFF20832
:1010C7007418F20874C0F27BFF7A1679661223B09F
:1010D700E478DDF278DDE2FF75F004A42400F58200
:1010E700E5F03403F583E0F54D75F004EFA4240132
:1010F700F582E5F03403F583E0F54EE2FF75F00481
:10110700A42402F582E5F03403F583E0F54F75F08A
:1011170004EFA42403F582E5F03403F583E0F550EA
:101127007BFF7A167969E225E025E0240AF8E2FCDC
:1011370008E2FD08E2FE08E2FF78E412075BAF5021
:10114700AE4FAD4EAC4D78E812075B1223B078DD99
:10115700E204F2E2C3942650030210DB78B7E2FC04
:1011670008E2FD08E2FE08E2FF12311D78E81207E7
:101177005B7BFF7A16797478B7E2FC08E2FD08E238
:10118700FE08E2FF78E412075B1223B078B3E2FCB3
:1011970008E2FD08E2FE08E2FF12311D78E81207B7
:1011A7005B7BFF7A16798C78B3E2FC08E2FD08E2F4
:1011B700FE08E2FF78E412075B1223B078BDE2FE77
:1011C70008E2FF123FC278E612075B7BFF7A1679C7
:1011D700A478BDE2FF08E278E4CFF208EFF2122329
:1011E700B078BBE2FE08E2FF123FC278E612075B67
:1011F7007BFF7A1679BD78BBE2FF08E278E4CFF28D
:1012070008EFF20213A212382978E474FFF2087487
:1012170018F20874C0F27BFF7A1679D60213A2126D
:1012270034797BFF7A1679E8AF54AE53AD52AC519F
:1012370078E412075B78E8E555F208E556F2AF4C1B
:10124700AE4BAD4AAC490812075B0213A21240C06D
:101257007BFF7A1679F90213A2123AAF7BFF7A174E
:10126700790B78E4E555F208E556F20213A278E126
:1012770074FFF2087417F2087415F20874FEF20886
:101287007400F2087401F27B017A0379EC12283AB0
:101297007801E2FC08E2FD78E4ECF208EDF2EC12EA
:1012A70003AE7B177AB779D1783812019678E612B0
:1012B700075B7BFF7A1779190213A278E174FFF2B3
:1012C700087417F2087415F20874FEF2087400F235
:1012D700087408F27B017A0379EC12283A7808E25D
:1012E700FC08E2FD78E4ECF208EDF2EC1203AE7BC9
:1012F700177AB779D1783812019678E612075B7BAF
:10130700FF7A17792A0213A278E174FFF20874179B
:10131700F2087439F208E4F2087400F2087430F243
:1013270008E4F2087400F2087434F27B017A037956
:10133700EC12283A123A377BFF7A177941AF3BAE66
:101347003AAD39AC3878E412075BAF37AE36AD3516
:10135700AC3478E812075B804278E174FFF20874D6
:1013670017F2087439F208E4F2087400F2087430CE
:10137700F208E4F2087400F2087434F27B017A038D
:1013870079EC12283A123BD17BFF7A177950AF37A5
:0E139700AE36AD35AC3478E412075B1223B0ED
:0113A5002225
:103A3700754801AF37AE36AD35AC34EC33500E12A6
:103A470007038F378E368D358C347548FFAF33AE0D
:103A570032AD31AC30EC3350131207038F338E3253
:103A67008D318C30E54875F0FFA4F5481238BA85DA
:103A77003938853A39853B3A853C3BAF3BAE3AAD61
:103A870039AC388F378E368D358C34AB37AA36A99B
:103A970035A834AF48EF3395E0FEFDFC1206B48F2E
:083AA700378E368D358C342278
:103BD100754801AF37AE36AD35AC34EC33500E120B
:103BE10007038F378E368D358C347548FF1238BAFE
:103BF100853D3F853C3E853B3D853A3CAF3FAE3EF2
:103C0100AD3DAC3C8F378E368D358C34AB37AA3613
:103C1100A935A834AF48EF3395E0FEFDFC1206B498
:093C21008F378E368D358C34226C
:0940FD00EF540324D3F8EDF22284
:03002300023B7528
:103B7500C0E0C0D075D000C082C083309817C2980D
:103B8500758301852C82052CE599F0E52CB52E056C
:103B9500052E752B0130992BC299E52D6523601DE6
:103BA500D287D2867583028523820523E0F599C2E3
:103BB5001674000470FD74000470FD8006D216C2F0
:0C3BC50087C286D083D082D0D0D0E032FE
:101E6F004E6F204572726F72004C696272617279A7
:101E7F00204572726F722051756575650038303567
:101E8F003120526573657420436865636B00536539
:101E9F007269616C20383035312055415254300011
:101EAF0053657269616C2038303531205541525479
:101EBF0031004C696272617279205574696C697472
:101ECF007920526F7574696E6573004144432043E6
:101EDF00616C6962726174696F6E00414443205294
:101EEF006561640054696D657220300054696D65D9
:101EFF007220310054696D657220320054696D652E
:101F0F007220330054696D65722034004E6F6E205D
:101F1F00566F6C6174696C652052616D0045787401
:101F2F0065726E616C20446576696365203031009F
:101F3F0045787465726E616C2044657669636520BF
:101F4F0030320055736572204572726F72004469AA
:101F5F0061673A004B657920496E746572727570CE
:101F6F0074005377697463682044656661756C7497
:101F7F00005350494F20496E74657272757074002A
:101F8F00486F6E657977656C6C2053656E736F72F1
:101F9F00730056534920436F6E74726F6C00566115
:101FAF006320436F6E74726F6C00566163205665C9
:101FBF006E740050727320436F6E74726F6C0050AA
:101FCF0072732056656E7400436F6E74726F6C205F
:101FDF0053657175656E636572004B6E6F74732018
:101FEF00436F6E74726F6C0050756D70205072730A
:101FFF002F5661630048572070696E20286A7461FC
:10200F00672900506F7765722D6F6E20726573654B
:10201F0074004D697373696E6720636C6F636B2017
:10202F006465746563746F72005761746368646F7D
:10203F00672074696D657200536F6674776172659E
:10204F0020726573657400436F6D70617261746F98
:10205F00723020726573657400436F6E76657274AB
:10206F0020737461727420726573657420736F7559
:10207F0072636500496E20706F696E7465722065BA
:10208F007175616C73206F757420706F696E7465F4
:10209F0072005472616E736D6974206F7665722071
:1020AF00666C6F77005265636569766572206F762F
:1020BF00657220666C6F7700427566666572206F79
:1020CF0076657220666C6F7700496E76616C696415
:1020DF0020636F6E76657273696F6E2061747465BD
:1020EF006D7074656400496E76616C696420766109
:1020FF006C75650056616C7565206C6F7765722025
:10210F007468616E206D696E696D756D2000566122
:10211F006C756520686967686572207468616E20E8
:10212F006D6178696D756D00496E76616C696420BB
:10213F0068656164657200496E76616C69642063DD
:10214F006865636B73756D0054656D70657261744E
:10215F007572652073656E736F72206F766572206E
:10216F007468726573686F6C640046616E20756E7B
:10217F00646572207468726573686F6C6420737025
:10218F0065656400417474656D707420746F2061AF
:10219F006363657373207768696C65206E6F742055
:1021AF00656E61626C656400496E76616C6964206E
:1021BF0053657474696E67005461736B2077617334
:1021CF00206E6F7420636F6D706C6574656420771B
:1021DF00697468696E206974732074696D65736CB6
:1021EF006F74005472616E736D69742054696D65FC
:1021FF00204F75740054696D65206F7574004578B4
:10220F00636573736976652073707572696F757323
:10221F002064617461004772617920636F64652087
:10222F0074696D6572206F7665722072756E0049E4
:10223F006E76616C696420537461746500526174C9
:10224F006520746F6F20686967680000FF1E6F015B
:10225F00FF1E7802FF1E8C03FF1E9D04FF1EAF059D
:10226F00FF1EC106FF1EDA07FF1EEA08FF1EF30955
:10227F00FF1EFB0AFF1F030BFF1F0B0CFF1F130D8E
:10228F00FF1F1B0EFF1F2C0FFF1F3F10FF1F5211B1
:10229F00FF1F5D12FF1F6313FF1F7114FF1F8015B8
:1022AF00FF1F8F16FF1FA117FF1FAD18FF1FB919B3
:1022BF00FF1FC21AFF1FCE1BFF1FD71CFF1FE91DD9
:1022CF00FF1FF70000000000FF1E6F01FF20040238
:1022DF00FF201203FF202104FF203805FF204706AF
:1022EF00FF205607FF206808FF208309FF20A10A5F
:1022FF00FF20B40BFF20C70CFF20D80DFF20F50ED9
:10230F00FF21030FFF211D10FF213711FF2146125F
:10231F00FF215713FF217914FF219315FF21B716C2
:10232F00FF21C717FF21F218FF220419FF220D1AF0
:0F233F00FF22251BFF223E1CFF224C0000000046
:1038BA00C0D0C0E0C0F0C000C001E478387908F692
:1038CA0008D9FC8537F0793F1238F58536F0191298
:1038DA0038F58535F0191238F58534F0191238F5AE
:1038EA00D001D000D0F0D0E0D0D022C0D0C0E0C00B
:1038FA00F0C000C001C002C003C004ABF078337A44
:10390A00048BF0E6A427F719E5F037F7AC01500D60
:10391A0019B937028007E704F7700280F3A904187F
:10392A00DADFD004D003D002D001D000D0F0D0E04A
:03393A00D0D022C8
:10009E00020453E86480F8E933E83360110460F039
:1000AE00ED33EC337009E8FCE9FDEAFEEBFF2204C8
:1000BE0060DED3EB9FEA9EE99DE8C2E78CF0C2F7C3
:1000CE0095F0400CE8CCF8E9CDF9EACEFAEBCFFB8F
:1000DE0012041E85D0F05804700320D5B3E80470C6
:1000EE00075002B2D502045D92D5EC0460F7E4CC61
:1000FE00C0E0C398F8603B94186008400DD0E0FB58
:10010E00020435E4FBFAC9FC8028E830E406E4C9B1
:10011E00FBE4CAFCE830E305E4C9CACBFCE85407AB
:10012E006010F8C3E913F9EA13FAEB13FBEC13FCB6
:10013E00D8F130F52FC3E49CFCEF9BFFEE9AFEED59
:10014E0099FDD0E0FBEF4E4D4C701222DB03020402
:10015E005AEC2CFCEF33FFEE33FEED33FDED30E7C2
:10016E00EB020435EF2BFFEE3AFEED39FDD0E0FB4E
:10017E0050130BBB000302045DED13FDEE13FEEFF7
:08018E0013FFEC13FC02043521
:10019600EC4D6011E8497017ED33EC3304600DE463
:1001A600FCFFFEFD22E933E8330470F80204531223
:1001B600041E58046009E4CC248150062850090224
:1001C600045D28400302045AC0E0EB4A7044B9803B
:1001D60006D0E0FB020449EF4E701CBD8008EBFF21
:1001E600EAFEE9FD80EBE98DF0A4FEE5F002027F70
:1001F600E9CDF9EAFEEBFFEF89F0A4FCE5F0CE8944
:10020600F0A42EFFE435F0CD89F0A42DFEE435F000
:100216008067EF4E7005BD80D780C3EF8BF0A4AC2E
:10022600F0EE8BF0A42CFCE435F0F8EF8AF0A42C69
:10023600E5F038FCE433CB8DF0A42CFCE5F03BF87C
:10024600EE8AF0A42CFCE5F038F8E433CF89F0A46C
:100256002CFCE5F038CF3400CE89F0A42FFFE5F072
:100266003EFEE433C98DF0A42EFEE5F039CD8AF0CA
:10027600A42FFFE5F03EFEE43DFD33D0E0FB500742
:100286000BBB000F02045DEC2CFCEF33FFEE33FEDC
:06029600ED33FD0204350A
:10029C0002045DEC5D046005E8590470030204532C
:1002AC0012041E580460F6EC4860F2EC7004FDFE7B
:1002BC00FF22C860DB2481C85009C3986002500635
:1002CC0002045A9850CAF582E9294B4A7005AB8250
:1002DC0002044975F0007C1A7880C3EF9BEE9AED0E
:1002EC0099400DC3EF9BFFEE9AFEED99FDE842F0AD
:1002FC00DC23ACF0D0E0FFD0E0FED0E0FDAB822000
:10030C00E7101BEB60BAEC2CFCEF33FFEE33FEED89
:10031C0033FD020435E803F830E705C0F075F00052
:10032C00EF2FFFEE33FEED33FD40B830E7C280AA6D
:10033C0074F8CC6480CCC86480C8F582046043C374
:10034C00EB9FF5F0EA9E42F0E99D42F0E89C45F007
:10035C0060305018E5825FFFE582F42B5582FB502C
:10036C00210ABA001D09B90019088016E5825BFB49
:10037C00E582F42F5582FF50090EBE00050DBD001D
:10038C00010CC3EB9FF5F0EA9E42F0E99D42F0E8C8
:0D039C009C45F06007CC4820E701B3EC223F
:1003A90075F020800E75F010800575F0087D007ECF
:1003B900007F003392D530D503120703EC33401088
:1003C900EF33FFEE33FEED33FDEC33FCD5F0ED22D8
:0E03D900E5F0247EA2D513CC92E7CDCEFF2214
:1003E700EDD2E7CD33EC3392D524814006E4FFFE0E
:1003F700FDFC22FCE4CFCECDCC24E0501174FF806D
:10040700EDC3CC13CCCD13CDCE13CECF13CF047009
:07041700F030D5DE020703FF
:10234E00E51224E4F8E205122278E1300F0278E477
:10235E00E475F00112078D02061B2008EB7F2ED2CA
:10236E00088018EF540F2490D43440D4FF300C0B57
:10237E00EF24BFB41A0050032461FFE51360021569
:10238E00130516E51670020515300F0D78E1E4758C
:10239E00F00112078DEF020661023E777403D20F31
:1023AE008003E4C20FF51278E11207ADE4F513F5E0
:1023BE0015F516E51360077F2012238980F5751435
:1023CE00FFC209C208C20AC20BC20DC20EC210124F
:1023DE002357FF700D300F057F0012239AAF16AEF4
:1023EE001522B4255FC2D5C20C122357FF24D0B4D8
:1023FE000A00501A75F00A781330D50508B6FF0199
:10240E0006C6A426F620D5047002D20B80D924CF9E
:10241E00B41A00EF5004C2E5D20C022686D209800F
:10242E00C6D20880C0D20A80BCD2D580BAD20D8066
:10243E00B47F20122389200A077401B5130040F1DE
:10244E0012234EFF1223890223C1D210D20E809581
:10245E0012234EFB12234EFA12234EF94A4B7006EC
:10246E00797D7A277BFF200A2EE513602A7E008E67
:10247E008275830012063460060EEE651470F0C28B
:10248E00D5EBC0E0EAC0E0E9C0E0EE1226E6D0E00F
:10249E00F9D0E0FAD0E0FB12061BFF60AAEBC0E019
:1024AE00EAC0E0E9C0E0122389D0E02401F9D0E0CF
:1024BE003400FAD0E0FBE5140460DCD514D9808733
:1024CE00D20A80A21226C960F7E514700104120424
:1024DE0068A914600DE514600914F514122770EF45
:1024EE0060F3EA30E702F404C3995077EAF4251456
:1024FE000430E701E404F514800D1226C960C1EA28
:10250E0005142514120468EA78F7F230E701E42581
:10251E001404D51404200D01141226E6E4C0E012B2
:10252E00277078F7E2601320E70714F21223718008
:10253E002204F2D0E014C0E07F00122371E5146093
:10254E00071223681514800B300D03122368D0E098
:10255E000223C1D0E00480C51226C960A0E5140490
:10256E0012046878F7EAF2E514200D0260010424E3
:0C257E00041226E674FF04C0E01227706F
:10258A00122371E514200D026003122368D0E0B50E
:10259A0014E87F4512237B78F7E27F2B30E7047F2C
:1025AA002DF404C0E0122389D0E075F00A84C0F04B
:1025BA00122372D0E01223720223C17910800279A9
:1025CA0008C20EC2108008D2D5790A8004790AC2DC
:1025DA00D5E514047002F514E4FAFDFEFF12234E49
:1025EA00FC7B0820091312234EFD7B1030080A12C7
:1025FA00234EFE12234EFF7B20EC3382D592D55018
:10260A0013C3E43008069FFFE49EFEE42009039DFD
:10261A00FDE49CFCE4CBF8C209EC700CCFCECDCC27
:10262A00E824F8F870F38017C3EF33FFEE33FEEDBA
:10263A0033FDEC33FCEB33FB994002FB0FD8E9EB9B
:10264A00300905F8D0E0C448B209C0E00AEC4D4EA2
:10265A004F78207B0070C2EAB5140040BCC0E0127B
:10266A0026E8D0F0D0E0200904C4C0E0C4B209C012
:10267A00F0122372D0F0D5F0EB0223C11207E62440
:10268A005E5325C558242F4C242B4225C94F25D1EA
:10269A004425D14924444325D7552508462566456E
:1026AA0024D247279D5024332D24372E245A2B24F5
:1026BA003B2324582027862A23F34800002452E586
:1026CA0014B4FF0375140612234EFC12234EFD1296
:1026DA00234EFE12234EFF78F0020497790AA2D500
:1026EA00200B14300D09B910020404B9080104A220
:1026FA00D5200E02500104200A68920AB513005030
:10270A0034C0E07F20300B197F30A20A720E720D9E
:10271A00500F12273FC20AC20EC20DC2107F30806C
:10272A000F300D03E9C0E0122389300D03D0E0F920
:10273A00D0E0B513CC300D177F30B9100C122389B5
:10274A007F58300C077F788003B908031223893039
:10275A000A057F2D0223897F202010F87F2B200E67
:10276A00F322920A80CF7F00B40700500524F0F8C4
:10277A00E2FF22286E756C6C2900D20912234E30B2
:10278A0009F8C209781330D50108F60223F32D504F
:10279A0043495812234E2403B405004001E490270C
:1027AA00989312237A743A12237AD20B751304027D
:0227BA0025C533
:1027BC00E512300B0104F8232824E1F82278DE30EE
:1027CC000B0278E1E475F00112078D02061B60EC38
:1027DC00C5167002151514C516200B04FF02410D09
:1027EC0078DE74FFF5F002079DFF024054E513609C
:1027FC0006D513037F0022200B0F124068EF6008F0
:10280C000516E516700205152278DE1207841206ED
:10281C001BFF60E978DEE475F00112078D80DE1293
:10282C002803EFC0E01227F5D0E040F380A0D20BD4
:10283C008002C20B78DE1207ADE4F514F512F51523
:10284C00F516751300C20AC208C209C20C1227C9B8
:10285C00FF7005AF147E0022B425301227C9FF2467
:10286C00D0B40A00500C75F00AC513A42513F51347
:10287C0080E924CFB41A00EF5002C2E5022AD6D266
:10288C000980D8D20880D4D20C80D0EF1227F55012
:10289C000812282BEF600E80A9EFC0E0122803D09D
:1028AC00E06F609EEF60741227DA80A7122803EFA6
:1028BC006069E513700705138003122803EF601499
:1028CC00200C0E1227BCE475F00112078DEF1206D6
:1028DC0061D513E6200C040512051480BA1227F9F1
:1028EC00EFC0E01227F5D0E050041227DAE4FF2005
:1028FC000C0E1227BCE475F00112078DEF12066165
:10290C00EF70DA200C0405120514808BE5136002BD
:10291C00051312282B1227F9EF70C6300B04E412A2
:10292C0027DAE514600302285F7EFF7FFF22E513A0
:10293C006002051312282BD20ED20D1227F9EF309C
:10294C000E0260D7C0E01227DAD0E0AC17AD18AE9B
:10295C0019AF1A12304A8C178D188E198F1A50070E
:10296C00122803C20D80D4200C10200D0205141265
:0A297C0027BC12078405121207356C
:1029860002284ED0E0809A7900800A791080067974
:10299600088002790AD20DE51360020513E9C0E04A
:1029A60012282BEF60DD122803BF2D04D20A800304
:1029B600BF2B0912282BEF60CA1227F9D0E0B40A00
:1029C600028033B40802802EBF302770027408C21A
:1029D6000DC0E01227F9D0E0BF78028003BF581679
:1029E6000513D513028007D51304D20D800B74107E
:1029F60080197002740ABF000AEFF8E4FCFDFEFFBE
:102A0600022A89C0E0EF1227DAD0E0F9E4FCFDFEE5
:102A1600FFE9C0E0ECC0E0EDC0E0EEC0E0EFC0E0F2
:102A26001227F9EFF8D0E0FFD0E0FED0E0FDD0E0CD
:102A3600FCD0F0E8604DB461004007B47B00500262
:102A4600C2E524D0503DFA24F6500724F950342428
:102A56000AFAEAB5F000502BCFA9F0A42FFF92D5C1
:102A6600E9C5F0CEA4A2D53EFE92D5E9C5F0CDA427
:102A7600A2D53DFD92D5E9C5F0CCA4A2D53CFCC2B9
:102A86000D808EE8C0E0200C2A200D080514300ABF
:102A9600031207031227BC120784051220080B2015
:102AA600090DEE8FF012069580091207358004EFA6
:102AB600120661D0E01227DA02284E200C101227E7
:102AC600BC1207840512E5158516F012069580E8F6
:102AD6001207E6291853299158288F4C288B42282B
:102AE600674829954F29994428B843298D4929993A
:102AF60055293A46293A45293A4728932A2AC14E62
:042B0600000028970C
:10041E00E9D2E7C933E833F892D5EDD2E7CD33EC24
:07042E0033FC5002B2D5229D
:10043500EC30E7100FBF000C0EBE00080DBD000428
:100445000BEB6014A2D5EB13FCED92E7FD2274FFD4
:10045500FCFDFEFF22E480F8A2D574FF13FC7D802D
:03046500E480EF41
:10046800F920E72824F950037907E4F42402FB185B
:10047800DBFDE224FB5014E9600DE4F218E204F21B
:0F048800B40A08E4F2D9F57401F20A22C2D522AF
:10049700ED33EC3392D5FA602AB4FF33EDC2E77B34
:1004A700FF60067A0479BCE4227A0479C520D50472
:1004B7007A0479C0224E614E002B494E46002D49E1
:1004C7004E4600E47A08F208DAFC7B00740722E85B
:1004D700C0E0ECC0E0EDC0E0EEC0E0EFC0E0EA75E0
:1004E700F010A4CAABF075F04DA42BFBE435F0FC7B
:1004F700EA2410FAEB34C5FBEC34D9FCEDC2E7FF74
:1005070075F056A4F42411C5F0F434C58FF0A42A6D
:10051700E5F03BE43CF220E7141205DBD0E0FFD026
:10052700E0FED0E0FDD0E0FC12029F8014F404123C
:1005370005DBD0E0FFD0E0FED0E0FDD0E0FC12010B
:1005470096D0E0F8E2FAEDD2E7CD33EC332482FB24
:10055700E4C3CF33CFCE33CECD33CD33DBF37B07FD
:1005670075F00A846004F2081B0AE5F0F2088FF0C0
:10057700740AA4FFACF08EF0740AA42CFEACF05001
:10058700010C8DF0740AA42CFDE435F0F208DBDED3
:03059700740722C4
:10303700C20FC210C211C212F9E4F51BF51CFCFD48
:10304700FEFFE9100EEA20110CB42D04D211D32291
:10305700B42B02D32224D0504794095041240A307C
:103067001215F8851CF0740AA42872E74051C5F0C0
:10307700704D85F01CD322D210C0E0E4FBFA792012
:103087007841120196ECF8EDF9EEFAEFFBD0E0FC8F
:10309700E41203B31200A5300FB4151BD322240A80
:1030A700201220B4FE07200F1AD20FD32224EB6080
:1030B7000424E0700EA211920FD212C211D322C3C0
:1030C700020453E430120BE51C301102F404A20F82
:1030D70092113010EA251B20D2E5A2E79212500286
:1030E700F404B4260050D8CCC0E0EDC0E0EEC0E058
:1030F700EFC0E0EC1205DBD0E0FFD0E0FED0E0FD52
:10310700D0E0FC201205120196800312029F3011B5
:063117000312059AC32219
:10059A00ED33EC33600A047003BD8004ECB2E7FC6F
:0105AA00222E
:1005AB003F8000004120000042C80000447A000058
:1005BB00461C400047C35000497424004B189680DA
:1005CB004CBEBC205A0E1BCA6753C21C749DC5AED1
:1005DB00FB60065407601C2323120609EB5438609A
:1005EB00091205F5120604120196ECF8EDF9EEFA74
:1005FB00EFCB22EB12060480F1543803241C900538
:10060B00ABFE93FC0EEE93FD0EEE930ECE93FF22FC
:1037A900021957E493A3F8E493A34003F68001F2C6
:1037B90008DFF48029E493A3F85407240CC8C33321
:1037C900C4540F4420C8834004F456800146F6DFF0
:1037D900E4800B0102040810204080903F71E47ED0
:1037E900019360BCA3FF543F30E509541FFEE493E5
:1037F900A360010ECF54C025E060A840B8E493A3AC
:10380900FAE493A3F8E493A3C8C582C8CAC583CAD6
:10381900F0A3C8C582C8CAC583CADFE9DEE780BE8E
:013F9B000025
:10061B00BB010689828A83E0225002E722BBFE02DD
:09062B00E32289828A83E4932210
:10063400BB010CE58229F582E5833AF583E022507B
:1006440006E92582F8E622BBFE06E92582F8E222C5
:0D065400E58229F582E5833AF583E49322DF
:10066100BB010689828A83F0225002F722BBFE0178
:02067100F32272
:10067300F8BB010DE58229F582E5833AF583E8F0BD
:10068300225006E92582C8F622BBFE05E92582C869
:02069300F22251
:10069500BB010A89828A83F0E5F0A3F0225006F7B0
:0F06A50009A7F01922BBFE06F3E5F009F31922AD
:1006B400E88FF0A4CC8BF0A42CFCE98EF0A42CFCE5
:1006C4008AF0EDA42CFCEA8EF0A4CDA8F08BF0A463
:1006D4002DCC3825F0FDE98FF0A42CCD35F0FCEBC2
:1006E4008EF0A4FEA9F0EB8FF0A4CFC5F02ECD3987
:0F06F400FEE43CFCEAA42DCE35F0FDE43CFC22F4
:103D7900C2D5E830E70FB2D5E4C39BFBE49AFAE475
:103D890099F9E498F8EC30E717B2D5123DAF120C67
:103D9900EBE4C39BFBE49AFAE499F9E498F880030D
:103DA900120CEB30D50DE4C39FFFE49EFEE49DFDAC
:043DB900E49CFC2268
:0E070300C3E49FFFE49EFEE49DFDE49CFC2207
:10071100EB9FF5F0EA9E42F0E99D42F0E89C45F03E
:0107210022B5
:10072200E8600FECC313FCED13FDEE13FEEF13FFB5
:03073200D8F122D9
:10073500BB010789828A83020D7D5005E9F802070E
:0A0745004FBBFE05E9F802075B2236
:0C074F00ECF608EDF608EEF608EFF622D6
:0C075B00ECF208EDF208EEF208EFF222DA
:10076700F5F0C582A4C582C5F0C583A42583F583AA
:01077700225F
:0C077800A42582F582E5F03583F583228C
:09078400E2FB08E2FA08E2F922A6
:10078D00FAE2FB0808E2F925F0F218E2CA3AF22281
:10079D00FAE2FB0808E225F0F9F218E23AFAF22241
:0907AD00EBF208EAF208E9F2227D
:1007B600BB010DE58229F582E5833AF583020D92A8
:1007C6005007E92582F8020D89BBFE07E92582F864
:1007D600020784E58229F582E5833AF583020D9BBB
:1007E600D083D082F8E4937012740193700DA3A3A2
:1007F60093F8740193F5828883E4737402936860B6
:06080600EFA3A3A380DFB5
:10080C00D083D082F8E4937012740193700DA3A37B
:10081C0093F8740193F5828883E473740293B5F0B2
:0D082C00067403936860E9A3A3A3A380D81A
:1040680010170B1240F3BF0D027F0A023E7778D873
:03407800E2FF2242
:07410D0078D8EFF2D217226F
:0F40CF00EFC394304007EF943A50028001C322B0
:10405400EFC394094005EF940E4004EFB42003D35A
:044064008001C322F2
:10409F00EFC39461400AEF947B5005EF24E0FF22B9
:0140AF0022EE
:10083900E3F5F009E208B5F06D606B80F3E3F5F0DC
:1008490009E608B5F060605E80F387F009E608B54F
:10085900F054605280F487F009E208B5F048604628
:1008690080F488828C8387F009E0A3B5F03860367C
:1008790080F488828C8387F009E493A3B5F027601C
:100889002580F388828C83E3F5F009E0A3B5F0169F
:10089900601480F388828C83E3F5F009E493A3B5AF
:1008A900F004600280F2020964808580E7808E800E
:1008B900D2803C8015806C807E809B80B5808B8047
:1008C900A1804F8070803A02097A89828A83ECFA82
:1008D900E493F5F0A3C8C582C8CCC583CCE493A33F
:1008E900C8C582C8CCC583CCB5F070606E80E1897B
:1008F900828A83E493F5F0A3E208B5F05E605C8038
:10090900F289828A83E0F5F0A3E608B5F04D604BE1
:1009190080F389828A83E0F5F0A3E208B5F03C60B0
:100929003A80F389828A83E493F5F0A3E608B5F067
:100939002A602880F2805D89828A83ECFAE493F543
:10094900F0A3C8C582C8CCC583CCE0A3C8C582C8FA
:10095900CCC583CCB5F004600280E27F00F845F095
:10096900600EE863F0806480D395F01F40027F0138
:100979002289828A83ECFAE0F5F0A3C8C582C8CC43
:10098900C583CCE0A3C8C582C8CCC583CCB5F0CBA0
:1009990060C980E389828A83ECFAE0F5F0A3C8C5CF
:1009A90082C8CCC583CCE493A3C8C582C8CCC5830F
:1009B900CCB5F0A760A580E288F0ED2402B404006C
:1009C9005099F582EB2402B40400508F2323458209
:0509D900239008B27339
:1009DE00E709F60870FA8046E709F20870FA803ED9
:1009EE0088828C83E709F0A370FA807EE309F6080B
:1009FE0070FA8076E309F20870FA806E88828C8332
:100A0E00E309F0A370FA806289828A83E0A3F60874
:100A1E0070FA805689828A83E0A3F20870FA804ABF
:100A2E0080D280FA80C680D4806580F280318010BA
:100A3E0080A680EA809A80A880DA80E280CA80311F
:100A4E0089828A83ECFAE493A3C8C582C8CCC58395
:100A5E00CCF0A3C8C582C8CCC583CC70E9800D8903
:100A6E00828A83E493A3F60870F9ECFAA9F0EDFB01
:100A7E002289828A83ECFAE0A3C8C582C8CCC583DA
:100A8E00CCF0A3C8C582C8CCC583CC70EA80DD8902
:100A9E00828A83E493A3F20870F980CE88F0ED2465
:100AAE0002B4040050C4F582EB2402B4040050BA20
:090ABE002323458223900A2E73C4
:1033A90078DAEBF208EAF208E9F278DAE2FB08E205
:1033B900FA08E2F912061BFF124054500D78DCE2BC
:1033C9002401F218E23400F280E0D20878DAE2FB54
:1033D90008E2FA08E2F912061BFF642B6004EFB455
:1033E9002D1E78DAE2FB0808E2F92401F218E2FA64
:1033F9003400F212061B642D6003D38001C39208C6
:10340900E478DDF208F278DAE2FB08E2FA08E2F998
:1034190012061BFF1240CF503C78DAE2FB08E2FAB1
:1034290008E2F912061BFF3395E0FEEF24D0FBEE0C
:1034390034FFFA08E2FE08E2FF7C007D0A120C9DC7
:10344900EF2B78DEF2EE3A18F218E22401F218E2D4
:103459003400F280B130080978DDE2FE08E2FF802D
:103469000E78DDE2FE08E2FFC3E49FFFE49EFE2240
:100AC700E3F5F009E208B5F06BDFF58067E3F5F0D1
:100AD70009E608B5F05EDFF5805A87F009E608B544
:100AE700F052DFF6804E87F009E208B5F046DFF6F0
:100AF700804288828C8387F009E0A3B5F036DFF661
:100B0700803288828C8387F009E493A3B5F025DFD0
:100B1700F5802188828C83E3F5F009E0A3B5F01412
:100B2700DFF5801088828C83E3F5F009E493A3B5A1
:100B3700F002DFF4020BF6808780E9809080D48092
:100B47003E8015806E807E809D80B7808D80A380DB
:100B5700518074803C020C0289828A83ECFAE49308
:100B6700F5F0A3C8C582C8CCC583CCE493A3C8C598
:100B770082C8CCC583CCB5F076DFE3DEE18070892F
:100B8700828A83E493F5F0A3E208B5F062DFF4808C
:100B97005E89828A83E0F5F0A3E608B5F051DFF5B8
:100BA700804D89828A83E0F5F0A3E208B5F040DF43
:100BB700F5803C89828A83E493F5F0A3E608B5F0D3
:100BC7002EDFF4802A8002805789828A83ECFAE438
:100BD70093F5F0A3C8C582C8CCC583CCE0A3C8C52C
:100BE70082C8CCC583CCB5F006DFE4DEE280007FA7
:100BF700FFB5F0020F2240027F012289828A83EC2F
:100C0700FAE0F5F0A3C8C582C8CCC583CCE0A3C879
:100C1700C582C8CCC583CCB5F0D5DFE5DEE380CF90
:100C270089828A83ECFAE0F5F0A3C8C582C8CCC5EF
:100C370083CCE493A3C8C582C8CCC583CCB5F0AF39
:100C4700DFE4DEE280A988F0EF60010E4E60ABEDD5
:100C57002402B404005098F582EB2402B404005037
:0A0C67008E2323458223900B3E7379
:100C7100EF4E6012EF60010EEDBB010B89828A839A
:100C8100F0A3DFFCDEFA2289F05007F709DFFCA9A7
:0C0C9100F022BBFEFCF309DFFCA9F022FE
:100C9D00EF8DF0A4A8F0CF8CF0A428CE8DF0A42E6B
:020CAD00FE2225
:100CAF0075F008758200EF2FFFEE33FECD33CDCCFC
:100CBF0033CCC58233C5829BED9AEC99E58298407F
:100CCF000CF582EE9BFEED9AFDEC99FC0FD5F0D65C
:100CDF00E4CEFBE4CDFAE4CCF9A88222B800C1B986
:100CEF000059BA002DEC8BF084CFCECDFCE5F0CBC4
:100CFF00F97818EF2FFFEE33FEED33FDEC33FCEBFD
:100D0F0033FB10D703994004EB99FB0FD8E5E4F9B7
:100D1F00FA227818EF2FFFEE33FEED33FDEC33FCA4
:100D2F00C933C910D7059BE99A4007EC9BFCE99A98
:100D3F00F90FD8E0E4C9FAE4CCFB2275F010EF2FDD
:100D4F00FFEE33FEED33FDCC33CCC833C810D707DD
:100D5F009BEC9AE899400AED9BFDEC9AFCE899F818
:0E0D6F000FD5F0DAE4CDFBE4CCFAE4C8F922AB
:0C0D7D00ECF0A3EDF0A3EEF0A3EFF022E9
:090D8900E6FB08E6FA08E6F9228F
:090D9200E0FBA3E0FAA3E0F92262
:0C0D9B00E493FB740193FA740293F922B4
:0A40F3003098FDAF99C2987E0022BC
:00000001FF
